:20000000FFCDFFFFFFFFFFFFFFFFFFFFFFFFFFFFFFFFFFFFFFFFFFFFFFFFFFFFFFFFFFFF32
:20002000FFFFFFFFFFFFFFFFFFFFFFFFFFFFFFFFFFFFFFFFFFFFFFFFFFFFFFFFFFFFFFFFE0
:20004000FFFFFFFFFFFFFFFFFFFFFFFFFFFFFFFFFFFFFFFFFFFFFFFFFFFFFFFFFFFFFFFFC0
:20006000FFFFFFFFFFFFFFFFFFFFFFFFFFFFFFFFFFFFFFFFFFFFFFFFFFFFFFFFFFFFFFFFA0
:20008000FFFFFFFFFFFFFFFFFFFFFFFFFFFFFFFFFFFFFFFFFFFFFFFFFFFFFFFFFFFFFFFF80
:201C00000EC01DC01CC01BC01AC019C018C017C016C015C014C013C012C011C010C0112406
:201C20001FBECFE5D2E0DEBFCDBF20E0A0E6B0E001C01D92AB3AB207E1F7B1D1CFC1E0CF7B
:201C4000CF93DF9300D000D0CDB7DEB71C821B821C821B8226B3287030E086B3887090E05F
:201C600028173907D1F386B3282F287012BE60E070E0822F90E046B3487050E08417950760
:201C8000D1F332B712BE86B3282F28706830710530F08B819C81830F911D9C838B836F5F0D
:201CA0007F4F6031710529F78B819C8163E070E07BD135E0969587953A95E1F79A838983FB
:201CC00082B749815A8190E084179507C8F3822F90E026B3287030E08217930799F426B389
:201CE000287030E082179307D1F386B3282F287012BE82B749815A8190E084179507C8F30D
:201D000012BEE5CF86B3887048E352E070E068E090E026B3287030E082179307D1F312BE61
:201D200026B3287082B7E981FA8190E08E179F07C8F386B38870E72FF0E0E05AFF4F9081EE
:201D4000990F281391609083615011F47F5F68E041505109E9F681E00F900F900F900F9019
:201D6000DF91CF910895EF92FF920F931F93CF93DF938B019C01F894DB0183E0F8018093BC
:201D80005700E89507B600FCFDCFD091A700F090A80060E070E0C1E0FA01E0804E5F5F4FD3
:201DA000CA010197FC01808190E0982F88278E0D911D011511052105310561F461157105CA
:201DC00099F48F5F9F4B9093AA008093A9008FEF9DEC0AC00F3611052105310529F46C33D1
:201DE000710511F48D2F9F2DFB01EA0FFB1F0C01C0935700E895112407B600FCFDCFF2E011
:201E00004F0E511C6E5F7F4F6034710509F0C4CF85E0F80180935700E89507B600FCFDCFFD
:201E2000DF91CF911F910F91FF90EF90089517BAF89413BE80EC9BE1A9EAB0E022E030E08C
:201E400071E08E3F4BE1940751F42115310539F04D915C91119722503109129603C0FC013C
:201E6000459154916FB7F894FC010A0170935700E89511246FBF02968115FCE19F0709F702
:201E8000E199FECF8FB7F894E0ECFBE193E090935700E89507B600FCFDCFE0ECFBE195E075
:201EA00090935700E89507B600FCFDCF91E190935700E8958FBFE091A900F091AA0009940D
:201EC00016B3187003E02AE0F22EC0E1D7E232E0E32E82B7853600F112BE2197E9F488B3A2
:201EE0008E2588BBFA94F11015C0C19842E050E06EEF7BE189EA90E068D08091A90090912E
:201F0000AA00892B31F0F894E091A900F091AA0009958DDFC0E1D7E286B3212F30E088707C
:201F200090E02817390719F016B3187001500111D0CFC19A85DE81110DC092E082B78536D3
:201F4000E8F312BE2197D1F788B3892788BBC8EED3E0F4CF10916000123021F01330E1F490
:201F600066DF1AC06091620070E0762F662780916100680F711D96E0660F771F9A95E1F76E
:201F800061158CE1780740F480E090E047E650E0EADE88B3182718BB10926000CBCFB99A7A
:201FA000BB9882E083BF8CDF0024552704C0080E591F880F991F009729F076956795B8F31C
:201FC0007105B9F7802D952F0895FB01DC0102C005900D9241505040D8F70895F894FFCF17
:00000001FF
