:100000001DC02CC0EEC02AC029C0A1C027C026C078
:1000100025C024C023C022C021C020C01FC00000B2
:100020000000370000000000380002020202020255
:1000300001020408102001030000040011241FBE67
:10004000CFE5D2E0DEBFCDBF20E0A0E6B0E001C04A
:100050001D92AD36B207E1F7EBD071C1D1CF90E080
:10006000FC01EA5CFF4F3491FC01E05DFF4F2491FD
:10007000FC01E65DFF4FE491EE23B9F0332329F054
:100080003130A1F48AB58F778ABDF0E0EE0FFF1F03
:10009000EC5DFF4FA591B4918FB7611118C0F89432
:1000A000EC9120952E232C938FBF0895323019F4B4
:1000B0008AB58F7DE9CF333021F480B78F7D80BF43
:1000C000E4CF343011F78CB58F7D8CBDDECFF89442
:1000D000EC912E2BE8CFCF93DF9390E0FC01E05D15
:1000E000FF4F2491865D9F4FFC0184918823C9F0C6
:1000F00090E0880F991FFC01E25EFF4FA591B4913B
:10010000FC01EC5DFF4FC591D49161110DC09FB70B
:10011000F8948C91209582238C93888128232883BE
:100120009FBFDF91CF910895623051F49FB7F8944B
:100130003C91822F809583238C93E8812E2BEFCFE7
:100140008FB7F894EC912E2B2C938FBFEACF1F9290
:100150000F920FB60F9211242F933F938F939F937B
:10016000AF93BF938091690090916A00A0916B005A
:10017000B0916C003091680026E0230F2D3768F1B4
:1001800029E8230F0396A11DB11D209368008093D9
:10019000690090936A00A0936B00B0936C0080910B
:1001A000640090916500A0916600B091670001968F
:1001B000A11DB11D8093640090936500A09366001B
:1001C000B0936700BF91AF919F918F913F912F9115
:1001D0000F900FBE0F901F9018950296A11DB11D94
:1001E000D4CF1F920F920FB60F9211242F938F939B
:1001F0009F93AF93BF932FB7F8948091690090912C
:100200006A00A0916B00B0916C002FBF80936000DA
:1002100090936100A0936200B0936300BF91AF918F
:100220009F918F912F910F900FBE0F901F90189557
:10023000C3E0CABDD2E0D3BF789489B7826089BFDA
:1002400080E48CBD8FEF8DBD84EC80BF83E886B9E0
:1002500062E080E040DF62E081E03DDF61E082E07B
:100260003ADF61E085E037DF61E084E034DF61E0C0
:1002700083E031DF80E880BF80E18CBD8CB5806495
:100280008CBD8EEE8DBD87E78BBDD5BB8BB78062F5
:100290008BBF3798C0BD85B7877E806185BF2FB77C
:1002A000F8948091690090916A00A0916B00B091E0
:1002B0006C002FBF8093600090936100A093620058
:1002C000B0936300459B36C080B7836080BF61E018
:1002D00082E0C5DE2FB7F8948091690090916A00A2
:1002E000A0916B00B0916C002FBF409160005091C5
:1002F00061006091620070916300841B950BA60BF6
:10030000B70B81369A4EA105B105E0F260E082E0BC
:10031000A6DE60E085E0A3DE60E080E0DCDE85B79D
:10032000806285BF889562E080E0D5DE61E085E08F
:1003300096DEC8CF80B78C7F80BF60E0C9CFF894CD
:02034000FFCFED
:00000001FF
